:100BB000D6B8CEC6B2E2CAD400CBD1CBF7D6B8CE27
:100BC000C600CCEDBCD3D6B8CEC600C7E5BFD5D6DF
:040BD000B8CEC600D5
:10053300120CAB7F017E00120CE8120D0C120CC1E1
:10054300120CF37FF47E01120BD4120A337FF47E74
:1005530001120BD4120D0C7BFF7A0B79B0E4FD7FF3
:100563000212095D7BFF7A0B79B97D017F011209C4
:100573005D7BFF7A0B79C27D027F0112095D7BFFF0
:100583007A0B79CB7D037F0112095DE557700C7BF4
:100593002A7D01FF120A967B208010E557B40116CD
:1005A3007B207D01E4FF120A967B2A7D02E4FF1281
:1005B3000A967B208019E557B4021B7B207D01E45A
:1005C300FF120A967B207D02E4FF120A967B2A7DA6
:1005D30003E4FF120A9620921C3092FDE557146043
:1005E3000C14600E2402700D1206348008120003EE
:1005F30080031207282090163090FDC3E5576480CE
:10060300947F400A1557E557B4FF037557022091AD
:10061300163091FDD3E55764809482500A0557E55F
:1006230057B40303E4F5577F647E00120BD402052D
:010633008E38
:020B8B008F38A1
:100B8D00E4F539F539E539C395385016C2A57FC856
:100B9D007E00120BD4D2A57FC87E00120BD405396E
:020BAD0080E3E3
:010BAF002223
:090CF300D290D291D292D2932248
:100CC100759850E4F587758920758DFD758BFDD27A
:040CD1008ED2AF22EE
:080CFC008F993099FDC2992285
:070D04003098FDC298AF9981
:010D0B0022C5
:030CD500015700C4
:100CAB00D2B27F30120BF27F01120BF27F06120BC6
:060CBB00F27F0C020BF2B7
:100BF200C2A6C2A5C2A78F807F017E00120BD4D2EB
:0B0C0200A77F017E00120BD4C2A722C6
:100C0D00D2A6C2A5C2A78F807F017E00120BD4D2BF
:0B0C1D00A77F017E00120BD4C2A722AB
:050D0C007F01020BF263
:100A96008B33EDD394005002E4FDEDD39403400272
:100AA6007D0353070FED14600F14601114601324B7
:100AB600037012430780800D430790800843078820
:0D0AC6008003430798120BF2AF33020C0DB2
:08095D008F4B8B4C8A4D894E33
:10096500E4F54FEDD394005002E4FDEDD39403403C
:10097500027D03534B0FED14600F146011146013C7
:1009850024037012430780800D43079080084307B6
:10099500888003430798120BF2AB4CAA4DA94E85EC
:1009A5004F82758300120317FFC394204017E54B50
:1009B500D3940F50E4120C0D054F054B7F057E00B7
:0509C500120BD480D4E8
:0109CA00220A
:04086F008F388D39F8
:10087300743F253EF8E4F6853E4AE54AD3940040AA
:1008830039E47B0AFAF9F8AF3DAE3CAD3BAC3A1222
:100893000380EB2430FF743E254AF8A607AF3DAE34
:1008A3003CAD3BAC3AE47B0AFAF9F81203808F3D86
:1008B3008E3C8D3B8C3A154A80C0E4F54AE53E14E4
:1008C300FFE54AC39F500F743F254AF8E6B430064C
:1008D3007620054A80E77B007A00793FAD39AF384F
:0308E30002095DAA
:0408E6008E508F5150
:1008EA00E4F555F556F554E554C39409505BE4F51F
:1008FA00527F34120BF2E5522480FF120BF2E554B8
:10090A002480FF120BF2E4F5537E00E5562553FFCF
:10091A00EE3555FEE5512FF582E5503EF583E49319
:10092A00FF120C0D0553E553C3941040DC741025D7
:10093A0056F556E43555F5550552E552C39420400F
:10094A00B074082554F554809E7F36120BF27F301E
:03095A00020BF29B
:100425003000CCEDBCD3D6B8CEC6004944203D0043
:100435003239392000C7EBB0B4D1B9CAD6D6B80025
:10044500B3C9B9A6BDF8C8EB00D4D9B0B4D2BBB412
:10045500CE00CCEDBCD3B3C9B9A600CAC7B7F1BCB1
:10046500CCD0F8CCEDBCD300D6B8CEC6B2E2CAD457
:1004750000CBD1CBF7D6B8CEC600C7E5BFD5D6B829
:10048500CEC600CBD1CBF7B3C9B9A600CBD1CBF73C
:10049500CAA7B0DC00C7E5BFD5C8ABB2BFA3BF00D4
:1004A500C8B7B6A820202020C8A1CFFB00C7E5BF4C
:1004B500D5D6D0A1ADA1AD002A00C7E5BFD5CDEAFF
:1004C500B3C900BCD3D4D8D6D000B6D4BDD3CAA73F
:1004D500B0DC00B6D4BDD3B3C9B9A600010007137B
:1004E50000000000001BEF01FFFFFFFF01000301FB
:1004F50000050100031D002101000804010000039F
:10050500E700F801000804010000001300210100C4
:1005150004020100080100040202000901000305AC
:0E05250000090100030D00110000000000009D
:0F0CD80002080000090A0100060601000B0019BE
:100B6000E4F53BF53C74EB253CF5827404353BF52C
:100B700083E493FF120CFC053CE53C7002053BC38B
:0A0B80009406E53B6480948040DB9E
:010B8A002248
:100AD300E4F534F535120B60E4F534F53574E125AE
:100AE30035F58274043534F583E493FF120CFC0569
:100AF30035E53570020534C3940AE5346480948087
:020B030040DBD5
:010B050022CD
:020C28008F3803
:100C2A00E4F539E539C39538500E120D04741325CD
:080C3A0039F8A607053980EB2B
:010C4200228F
:100C4300120B60E4F538E5389004F193FF120CFCC5
:090C53000538E538C3940640EDB4
:010C5C002275
:100C5D00120B60E4F538E53890051393FF120CFC88
:090C6D000538E538C3940740ED99
:010C7600225B
:100B0600E4F536E5369004EB93FF120CFC0536E56A
:100B160036C3940640EDE4F536E53690051A93FFA4
:0C0B2600120CFC0536E536C3940740EDC8
:010B320022A0
:100C7700120B60E4F538E5389004FD93FF120CFC85
:090C87000538E538C3940B40ED7B
:010C90002241
:100C9100120B60E4F536E53690052193FF120CFC4A
:090CA1000536E536C3940640ED6A
:010CAA002227
:100B3300E4F534E5349004EB93FF120CFC0534E543
:100B430034C3940640EDE4F534E53490052793FF70
:0C0B5300120CFC0534E534C3940640EDA0
:010B5F002273
:0209CB00AB0778
:1009CD00E4F539F538F537F536EEF50FEBF510E4BE
:1009DD00F53A740A253AF8E6FFE4FCFDFEE5392FF9
:1009ED00F539EE3538F538ED3537F537EC3536F573
:1009FD0036053AE53AB407DAE4FFE538FEE4FDFCE6
:100A0D0078081204128F11E539FF8F12120B60E472
:100A1D00F53A740A253AF8E6FF120CFC053AE53A68
:050A2D00C3940940ED37
:010A320022A1
:1000030078337C007D007BFF7A05792D7E007F03AA
:100013001202F1120D0C7BFF7A0479257D017F0317
:1000230012095D7BFF7A047927E4FD7F0112095DE4
:100033007BFF7A0479307D017F0112095D209312E1
:100043007F057E00120BD42093083093030201EA4C
:1000530080F82090307F057E00120BD4209026304C
:1000630090FDE509450870157BFF7A0479357D011C
:100073007F0312095D75080175092B8008E50915D1
:1000830009700215082091267F057E00120BD420EB
:10009300911C3091FDE509B42B0CE508B40107E48C
:1000A300F508F50980080509E50970020508E485E6
:1000B300093D85083CF53BF53A753E037D017F0319
:1000C30012086F3092030200267F057E00120BD4C4
:1000D3003092030200263092FD120D0C7BFF7A044E
:1000E300793AE4FD7F0112095D2093030200262083
:1000F30093127F057E00120BD420930830930302E2
:10010300002680F8120C437F0C120C28E51C70D9D2
:100113007F64FE120BD4120C5D7F0C120C28120D9F
:100123000C7BFF7A047945E4FD7F0212095D7FE8C9
:100133007E03120BD47BFF7A04794EE4FD7F021217
:10014300095D2093127F057E00120BD420930830A3
:10015300930302002680F8120C437F0C120C28E54F
:100163001C70DF7FC8FE120BD4120D0C7BFF7A04C8
:100173007957E4FD7F0112095D7BFF7A0479307DB5
:10018300017F0112095DE485093D85083CF53BF5D6
:100193003A753E037D017F0312086F7BFF7A047972
:1001A300607D027F0112095D120B067F0C120C2881
:1001B300120C917F0C120C28AF09AE081209CB7FE9
:1001C3000C120C287FE87E03120BD40509E5097095
:1001D300020508642C7004E508640160030200262C
:1001E300F508F509020026120D0C7BFF7A04796DE0
:1001F300E4FD7F0212095D7BFF7A0479767D017F3E
:100203000112095D7BFF7A0479277D027F011209C0
:0E0213005D7BFF7A04797F7D037F0102095D28
:10063400E4F533F53478357C00FD7BFF7A057930B9
:10064400FE7F031202F1120D0C7BFF7A04793AE467
:10065400FD7F0112095D120C437F0C120C28E51C6E
:1006640060030206EB7F64FE120BD4120C5D7F0C58
:10067400120C28120C777F10120C28E51C705312F0
:100684000D0C7BFF7A047988E4FD7F0112095D7B00
:10069400FF7A0479307D017F0112095D7F01120B1D
:1006A4008BAF1DEFFEAD1E7C00E42DF534EC3EF562
:1006B40033FEE485343D8E3CF53BF53A753E037DCF
:1006C400017F0312086F7FE87E03120BD4120D0C16
:1006D4008015120D0C7BFF7A047991E4FD7F0212E0
:1006E400095D7F03120B8B30930302064D120D0C30
:1006F4007BFF7A04796DE4FD7F0212095D7BFF7A4A
:100704000479767D017F0112095D7BFF7A047927E4
:100714007D027F0112095D7BFF7A04797F7D037F6F
:040724000102095D68
:10072800E4F533120D0C7BFF7A04799AE4FD7F021D
:1007380012095D7BFF7A0479A57D017F0112095DAD
:1007480020925E7F057E00120BD42092543092FDD9
:10075800120D0C7BFF7A0479B2E4FD7F0212095D69
:100768007F2C7E01120BD4E4F5337BFF7A0479BD2C
:100778007D01AF3312095D7FC87E00120BD40533AB
:10078800E533C3940840E3120B337F0C120C281294
:100798000D0C7BFF7A0479BFE4FD7F0212095D80AE
:1007A8000320939C120D0C7BFF7A04796DE4FD7F86
:1007B8000212095D7BFF7A0479767D017F011209B7
:1007C8005D7BFF7A0479277D027F0112095D7BFF3B
:0B07D8007A04797F7D037F0102095D38
:100A3300E4F533751C01120D0C7BFF7A0479C8E4CD
:100A4300FD7F0212095DE4F5337BFF7A0479BD7DF6
:100A530001AF3312095D7FC87E00120BD40533E565
:100A630033C3940840E3120D0C7BFF7A0479CFE47F
:100A7300FD7F0212095D120AD37F0C120C28E51CBC
:100A83007010120D0C7BFF7A0479D8E4FD7F0212FB
:020A9300095DFB
:010A9500223E
:0B0CE800EF1FAC0670011E4C70F622DE
:100BD400D3EF9400EE940040147D6E7C00ED1D7004
:0D0BE400011CED4C70F7EF1F70E61E80E362
:010BF10022E1
:030000000207E311
:0C07E300787FE4F6D8FD75815702082AE3
:10022100E709F608DFFA8046E709F208DFFA803EBF
:1002310088828C83E709F0A3DFFA8032E309F608AC
:10024100DFFA8078E309F208DFFA807088828C8314
:10025100E309F0A3DFFA806489828A83E0A3F608C8
:10026100DFFA805889828A83E0A3F208DFFA804CA2
:1002710080D280FA80C680D4806980F28033801079
:1002810080A680EA809A80A880DA80E280CA8033E2
:1002910089828A83ECFAE493A3C8C582C8CCC5835A
:1002A100CCF0A3C8C582C8CCC583CCDFE9DEE7802A
:1002B1000D89828A83E493A3F608DFF9ECFAA9F0A9
:1002C100EDFB2289828A83ECFAE0A3C8C582C8CCFF
:1002D100C583CCF0A3C8C582C8CCC583CCDFEADE18
:1002E100E880DB89828A83E493A3F208DFF980CC7A
:1002F10088F0EF60010E4E60C388F0ED2402B40473
:100301000050B9F582EB2402B4040050AF23234519
:06031100822390027173CB
:10031700BB010CE58229F582E5833AF583E022509B
:1003270006E92582F8E622BBFE06E92582F8E222E5
:0D033700E58229F582E5833AF583E49322FF
:1003440075F008758200EF2FFFEE33FECD33CDCC70
:1003540033CCC58233C5829BED9AEC99E5829840F3
:100364000CF582EE9BFEED9AFDEC99FC0FD5F0D6D0
:10037400E4CEFBE4CDFAE4CCF9A88222B800C1B9FA
:100384000059BA002DEC8BF084CFCECDFCE5F0CB38
:10039400F97818EF2FFFEE33FEED33FDEC33FCEB71
:1003A40033FB10D703994004EB99FB0FD8E5E4F92C
:1003B400FA227818EF2FFFEE33FEED33FDEC33FC19
:1003C400C933C910D7059BE99A4007EC9BFCE99A0D
:1003D400F90FD8E0E4C9FAE4CCFB2275F010EF2F52
:1003E400FFEE33FEED33FDCC33CCC833C810D70752
:1003F4009BEC9AE899400AED9BFDEC9AFCE899F88D
:0E0404000FD5F0DAE4CDFBE4CCFAE4C8F9221F
:10041200E8600FECC313FCED13FDEE13FEEF13FFC8
:03042200D8F122EC
:1007EF00020533E493A3F8E493A34003F68001F2E8
:1007FF0008DFF48029E493A3F85407240CC8C3330B
:10080F00C4540F4420C8834004F456800146F6DFD9
:10081F00E4800B0102040810204080900CD5E47E88
:10082F00019360BCA3FF543F30E509541FFEE493CE
:10083F00A360010ECF54C025E060A840B8E493A395
:10084F00FAE493A3F8E493A3C8C582C8CAC583CAC0
:10085F00F0A3C8C582C8CAC583CADFE9DEE780BE78
:010CE700000C
:00000001FF
